{
  "_format": "hh-sol-artifact-1",
  "contractName": "P2PLending",
  "sourceName": "contracts/P2PLending.sol",
  "abi": [
    {
      "anonymous": false,
      "inputs": [
        {
          "indexed": false,
          "internalType": "uint256",
          "name": "loanId",
          "type": "uint256"
        },
        {
          "indexed": false,
          "internalType": "uint256",
          "name": "installmentNo",
          "type": "uint256"
        },
        {
          "indexed": false,
          "internalType": "address",
          "name": "borrower",
          "type": "address"
        },
        {
          "indexed": false,
          "internalType": "uint256",
          "name": "amount",
          "type": "uint256"
        }
      ],
      "name": "InstallmentPaid",
      "type": "event"
    },
    {
      "anonymous": false,
      "inputs": [
        {
          "indexed": false,
          "internalType": "uint256",
          "name": "loanId",
          "type": "uint256"
        },
        {
          "indexed": false,
          "internalType": "uint256",
          "name": "timestamp",
          "type": "uint256"
        }
      ],
      "name": "LatePayment",
      "type": "event"
    },
    {
      "anonymous": false,
      "inputs": [
        {
          "indexed": false,
          "internalType": "uint256",
          "name": "loanId",
          "type": "uint256"
        },
        {
          "indexed": false,
          "internalType": "address",
          "name": "lender",
          "type": "address"
        },
        {
          "indexed": false,
          "internalType": "uint256",
          "name": "amount",
          "type": "uint256"
        }
      ],
      "name": "LoanFunded",
      "type": "event"
    },
    {
      "anonymous": false,
      "inputs": [
        {
          "indexed": false,
          "internalType": "uint256",
          "name": "loanId",
          "type": "uint256"
        },
        {
          "indexed": false,
          "internalType": "address",
          "name": "borrower",
          "type": "address"
        }
      ],
      "name": "LoanRemoved",
      "type": "event"
    },
    {
      "anonymous": false,
      "inputs": [
        {
          "indexed": false,
          "internalType": "uint256",
          "name": "loanId",
          "type": "uint256"
        }
      ],
      "name": "LoanRepaid",
      "type": "event"
    },
    {
      "anonymous": false,
      "inputs": [
        {
          "indexed": false,
          "internalType": "uint256",
          "name": "loanId",
          "type": "uint256"
        },
        {
          "indexed": false,
          "internalType": "address",
          "name": "borrower",
          "type": "address"
        },
        {
          "indexed": false,
          "internalType": "uint256",
          "name": "amount",
          "type": "uint256"
        },
        {
          "indexed": false,
          "internalType": "uint256",
          "name": "interestRate",
          "type": "uint256"
        },
        {
          "indexed": false,
          "internalType": "uint256",
          "name": "duration",
          "type": "uint256"
        }
      ],
      "name": "LoanRequested",
      "type": "event"
    },
    {
      "inputs": [
        {
          "internalType": "address",
          "name": "",
          "type": "address"
        }
      ],
      "name": "creditScores",
      "outputs": [
        {
          "internalType": "uint256",
          "name": "",
          "type": "uint256"
        }
      ],
      "stateMutability": "view",
      "type": "function"
    },
    {
      "inputs": [
        {
          "internalType": "uint256",
          "name": "_loanId",
          "type": "uint256"
        }
      ],
      "name": "defaultLoan",
      "outputs": [],
      "stateMutability": "nonpayable",
      "type": "function"
    },
    {
      "inputs": [
        {
          "internalType": "uint256",
          "name": "_loanId",
          "type": "uint256"
        }
      ],
      "name": "fundLoan",
      "outputs": [],
      "stateMutability": "payable",
      "type": "function"
    },
    {
      "inputs": [],
      "name": "getAllLoans",
      "outputs": [
        {
          "components": [
            {
              "internalType": "uint256",
              "name": "id",
              "type": "uint256"
            },
            {
              "internalType": "address",
              "name": "borrower",
              "type": "address"
            },
            {
              "internalType": "address",
              "name": "lender",
              "type": "address"
            },
            {
              "internalType": "uint256",
              "name": "amount",
              "type": "uint256"
            },
            {
              "internalType": "uint256",
              "name": "interestRate",
              "type": "uint256"
            },
            {
              "internalType": "uint256",
              "name": "duration",
              "type": "uint256"
            },
            {
              "internalType": "uint256",
              "name": "startTime",
              "type": "uint256"
            },
            {
              "internalType": "enum P2PLending.LoanStatus",
              "name": "status",
              "type": "uint8"
            },
            {
              "internalType": "uint256",
              "name": "installmentsPaid",
              "type": "uint256"
            },
            {
              "internalType": "uint256",
              "name": "lastPaidTimestamp",
              "type": "uint256"
            },
            {
              "internalType": "uint256",
              "name": "monthlyPayment",
              "type": "uint256"
            },
            {
              "internalType": "uint256",
              "name": "totalAmountDue",
              "type": "uint256"
            }
          ],
          "internalType": "struct P2PLending.Loan[]",
          "name": "",
          "type": "tuple[]"
        }
      ],
      "stateMutability": "view",
      "type": "function"
    },
    {
      "inputs": [],
      "name": "getAvailableLoans",
      "outputs": [
        {
          "components": [
            {
              "internalType": "uint256",
              "name": "id",
              "type": "uint256"
            },
            {
              "internalType": "address",
              "name": "borrower",
              "type": "address"
            },
            {
              "internalType": "address",
              "name": "lender",
              "type": "address"
            },
            {
              "internalType": "uint256",
              "name": "amount",
              "type": "uint256"
            },
            {
              "internalType": "uint256",
              "name": "interestRate",
              "type": "uint256"
            },
            {
              "internalType": "uint256",
              "name": "duration",
              "type": "uint256"
            },
            {
              "internalType": "uint256",
              "name": "startTime",
              "type": "uint256"
            },
            {
              "internalType": "enum P2PLending.LoanStatus",
              "name": "status",
              "type": "uint8"
            },
            {
              "internalType": "uint256",
              "name": "installmentsPaid",
              "type": "uint256"
            },
            {
              "internalType": "uint256",
              "name": "lastPaidTimestamp",
              "type": "uint256"
            },
            {
              "internalType": "uint256",
              "name": "monthlyPayment",
              "type": "uint256"
            },
            {
              "internalType": "uint256",
              "name": "totalAmountDue",
              "type": "uint256"
            }
          ],
          "internalType": "struct P2PLending.Loan[]",
          "name": "",
          "type": "tuple[]"
        }
      ],
      "stateMutability": "view",
      "type": "function"
    },
    {
      "inputs": [
        {
          "internalType": "address",
          "name": "_borrower",
          "type": "address"
        }
      ],
      "name": "getBorrowerLoans",
      "outputs": [
        {
          "components": [
            {
              "internalType": "uint256",
              "name": "id",
              "type": "uint256"
            },
            {
              "internalType": "address",
              "name": "borrower",
              "type": "address"
            },
            {
              "internalType": "address",
              "name": "lender",
              "type": "address"
            },
            {
              "internalType": "uint256",
              "name": "amount",
              "type": "uint256"
            },
            {
              "internalType": "uint256",
              "name": "interestRate",
              "type": "uint256"
            },
            {
              "internalType": "uint256",
              "name": "duration",
              "type": "uint256"
            },
            {
              "internalType": "uint256",
              "name": "startTime",
              "type": "uint256"
            },
            {
              "internalType": "enum P2PLending.LoanStatus",
              "name": "status",
              "type": "uint8"
            },
            {
              "internalType": "uint256",
              "name": "installmentsPaid",
              "type": "uint256"
            },
            {
              "internalType": "uint256",
              "name": "lastPaidTimestamp",
              "type": "uint256"
            },
            {
              "internalType": "uint256",
              "name": "monthlyPayment",
              "type": "uint256"
            },
            {
              "internalType": "uint256",
              "name": "totalAmountDue",
              "type": "uint256"
            }
          ],
          "internalType": "struct P2PLending.Loan[]",
          "name": "",
          "type": "tuple[]"
        }
      ],
      "stateMutability": "view",
      "type": "function"
    },
    {
      "inputs": [
        {
          "internalType": "address",
          "name": "user",
          "type": "address"
        }
      ],
      "name": "getCreditScore",
      "outputs": [
        {
          "internalType": "uint256",
          "name": "",
          "type": "uint256"
        }
      ],
      "stateMutability": "view",
      "type": "function"
    },
    {
      "inputs": [
        {
          "internalType": "address",
          "name": "_lender",
          "type": "address"
        }
      ],
      "name": "getLenderLoans",
      "outputs": [
        {
          "components": [
            {
              "internalType": "uint256",
              "name": "id",
              "type": "uint256"
            },
            {
              "internalType": "address",
              "name": "borrower",
              "type": "address"
            },
            {
              "internalType": "address",
              "name": "lender",
              "type": "address"
            },
            {
              "internalType": "uint256",
              "name": "amount",
              "type": "uint256"
            },
            {
              "internalType": "uint256",
              "name": "interestRate",
              "type": "uint256"
            },
            {
              "internalType": "uint256",
              "name": "duration",
              "type": "uint256"
            },
            {
              "internalType": "uint256",
              "name": "startTime",
              "type": "uint256"
            },
            {
              "internalType": "enum P2PLending.LoanStatus",
              "name": "status",
              "type": "uint8"
            },
            {
              "internalType": "uint256",
              "name": "installmentsPaid",
              "type": "uint256"
            },
            {
              "internalType": "uint256",
              "name": "lastPaidTimestamp",
              "type": "uint256"
            },
            {
              "internalType": "uint256",
              "name": "monthlyPayment",
              "type": "uint256"
            },
            {
              "internalType": "uint256",
              "name": "totalAmountDue",
              "type": "uint256"
            }
          ],
          "internalType": "struct P2PLending.Loan[]",
          "name": "",
          "type": "tuple[]"
        }
      ],
      "stateMutability": "view",
      "type": "function"
    },
    {
      "inputs": [
        {
          "internalType": "uint256",
          "name": "_loanId",
          "type": "uint256"
        }
      ],
      "name": "getLoan",
      "outputs": [
        {
          "internalType": "uint256",
          "name": "id",
          "type": "uint256"
        },
        {
          "internalType": "address",
          "name": "borrower",
          "type": "address"
        },
        {
          "internalType": "address",
          "name": "lender",
          "type": "address"
        },
        {
          "internalType": "uint256",
          "name": "amount",
          "type": "uint256"
        },
        {
          "internalType": "uint256",
          "name": "interestRate",
          "type": "uint256"
        },
        {
          "internalType": "uint256",
          "name": "duration",
          "type": "uint256"
        },
        {
          "internalType": "uint256",
          "name": "startTime",
          "type": "uint256"
        },
        {
          "internalType": "enum P2PLending.LoanStatus",
          "name": "status",
          "type": "uint8"
        },
        {
          "internalType": "uint256",
          "name": "installmentsPaid",
          "type": "uint256"
        },
        {
          "internalType": "uint256",
          "name": "lastPaidTimestamp",
          "type": "uint256"
        },
        {
          "internalType": "uint256",
          "name": "monthlyPayment",
          "type": "uint256"
        },
        {
          "internalType": "uint256",
          "name": "totalAmountDue",
          "type": "uint256"
        }
      ],
      "stateMutability": "view",
      "type": "function"
    },
    {
      "inputs": [],
      "name": "getLoanCount",
      "outputs": [
        {
          "internalType": "uint256",
          "name": "",
          "type": "uint256"
        }
      ],
      "stateMutability": "view",
      "type": "function"
    },
    {
      "inputs": [
        {
          "internalType": "uint256",
          "name": "_loanId",
          "type": "uint256"
        }
      ],
      "name": "getNextPaymentDue",
      "outputs": [
        {
          "internalType": "uint256",
          "name": "dueDate",
          "type": "uint256"
        },
        {
          "internalType": "uint256",
          "name": "amount",
          "type": "uint256"
        }
      ],
      "stateMutability": "view",
      "type": "function"
    },
    {
      "inputs": [
        {
          "internalType": "uint256",
          "name": "_loanId",
          "type": "uint256"
        }
      ],
      "name": "isPaymentOverdue",
      "outputs": [
        {
          "internalType": "bool",
          "name": "",
          "type": "bool"
        }
      ],
      "stateMutability": "view",
      "type": "function"
    },
    {
      "inputs": [],
      "name": "loanCounter",
      "outputs": [
        {
          "internalType": "uint256",
          "name": "",
          "type": "uint256"
        }
      ],
      "stateMutability": "view",
      "type": "function"
    },
    {
      "inputs": [
        {
          "internalType": "uint256",
          "name": "_loanId",
          "type": "uint256"
        }
      ],
      "name": "loanExists",
      "outputs": [
        {
          "internalType": "bool",
          "name": "",
          "type": "bool"
        }
      ],
      "stateMutability": "view",
      "type": "function"
    },
    {
      "inputs": [
        {
          "internalType": "uint256",
          "name": "",
          "type": "uint256"
        }
      ],
      "name": "loans",
      "outputs": [
        {
          "internalType": "uint256",
          "name": "id",
          "type": "uint256"
        },
        {
          "internalType": "address",
          "name": "borrower",
          "type": "address"
        },
        {
          "internalType": "address",
          "name": "lender",
          "type": "address"
        },
        {
          "internalType": "uint256",
          "name": "amount",
          "type": "uint256"
        },
        {
          "internalType": "uint256",
          "name": "interestRate",
          "type": "uint256"
        },
        {
          "internalType": "uint256",
          "name": "duration",
          "type": "uint256"
        },
        {
          "internalType": "uint256",
          "name": "startTime",
          "type": "uint256"
        },
        {
          "internalType": "enum P2PLending.LoanStatus",
          "name": "status",
          "type": "uint8"
        },
        {
          "internalType": "uint256",
          "name": "installmentsPaid",
          "type": "uint256"
        },
        {
          "internalType": "uint256",
          "name": "lastPaidTimestamp",
          "type": "uint256"
        },
        {
          "internalType": "uint256",
          "name": "monthlyPayment",
          "type": "uint256"
        },
        {
          "internalType": "uint256",
          "name": "totalAmountDue",
          "type": "uint256"
        }
      ],
      "stateMutability": "view",
      "type": "function"
    },
    {
      "inputs": [
        {
          "internalType": "uint256",
          "name": "_loanId",
          "type": "uint256"
        }
      ],
      "name": "payInstallment",
      "outputs": [],
      "stateMutability": "payable",
      "type": "function"
    },
    {
      "inputs": [
        {
          "internalType": "uint256",
          "name": "_amount",
          "type": "uint256"
        },
        {
          "internalType": "uint256",
          "name": "_interestRate",
          "type": "uint256"
        },
        {
          "internalType": "uint256",
          "name": "_durationMonths",
          "type": "uint256"
        }
      ],
      "name": "previewLoanCalculation",
      "outputs": [
        {
          "internalType": "uint256",
          "name": "monthlyPayment",
          "type": "uint256"
        },
        {
          "internalType": "uint256",
          "name": "totalAmountDue",
          "type": "uint256"
        },
        {
          "internalType": "uint256",
          "name": "totalInterest",
          "type": "uint256"
        }
      ],
      "stateMutability": "pure",
      "type": "function"
    },
    {
      "inputs": [
        {
          "internalType": "uint256",
          "name": "_loanId",
          "type": "uint256"
        }
      ],
      "name": "removeLoan",
      "outputs": [],
      "stateMutability": "nonpayable",
      "type": "function"
    },
    {
      "inputs": [
        {
          "internalType": "uint256",
          "name": "_amount",
          "type": "uint256"
        },
        {
          "internalType": "uint256",
          "name": "_interestRate",
          "type": "uint256"
        },
        {
          "internalType": "uint256",
          "name": "_durationMonths",
          "type": "uint256"
        }
      ],
      "name": "requestLoan",
      "outputs": [],
      "stateMutability": "nonpayable",
      "type": "function"
    }
  ],
  "bytecode": "0x608060405260008055348015601357600080fd5b506139fa806100236000396000f3fe6080604052600436106101145760003560e01c8063a5bfd16a116100a0578063e4ec99a511610064578063e4ec99a5146103d6578063edadbbfe14610413578063eee8b7ff1461043c578063eeeb0c1714610479578063f30e136e146104b657610114565b8063a5bfd16a146102e1578063a8818cf11461030c578063d3dd2bdf14610335578063e1ec3c6814610372578063e2f8a017146103ba57610114565b80635bdb2bfe116100e75780635bdb2bfe146101e257806367bf61c4146102215780637494ebb91461024a57806380bb727314610288578063846b909a146102c557610114565b806334d9289e14610119578063407a4e7d14610144578063504006ca1461016f57806352196812146101b7575b600080fd5b34801561012557600080fd5b5061012e6104f3565b60405161013b9190612bac565b60405180910390f35b34801561015057600080fd5b506101596104f9565b6040516101669190612e34565b60405180910390f35b34801561017b57600080fd5b5061019660048036038101906101919190612e87565b610826565b6040516101ae9c9b9a99989796959493929190612ed2565b60405180910390f35b3480156101c357600080fd5b506101cc610a55565b6040516101d99190612bac565b60405180910390f35b3480156101ee57600080fd5b5061020960048036038101906102049190612f8c565b610a5e565b60405161021893929190612fdf565b60405180910390f35b34801561022d57600080fd5b5061024860048036038101906102439190612e87565b610b84565b005b34801561025657600080fd5b50610271600480360381019061026c9190612e87565b610e2d565b60405161027f929190613016565b60405180910390f35b34801561029457600080fd5b506102af60048036038101906102aa919061306b565b61111f565b6040516102bc9190612bac565b60405180910390f35b6102df60048036038101906102da9190612e87565b611137565b005b3480156102ed57600080fd5b506102f66113a6565b6040516103039190612e34565b60405180910390f35b34801561031857600080fd5b50610333600480360381019061032e9190612e87565b6115b6565b005b34801561034157600080fd5b5061035c6004803603810190610357919061306b565b6117b2565b6040516103699190612bac565b60405180910390f35b34801561037e57600080fd5b5061039960048036038101906103949190612e87565b6117fb565b6040516103b19c9b9a99989796959493929190612ed2565b60405180910390f35b6103d460048036038101906103cf9190612e87565b6118a8565b005b3480156103e257600080fd5b506103fd60048036038101906103f89190612e87565b611e9c565b60405161040a91906130b3565b60405180910390f35b34801561041f57600080fd5b5061043a60048036038101906104359190612f8c565b611f25565b005b34801561044857600080fd5b50610463600480360381019061045e919061306b565b61226e565b6040516104709190612e34565b60405180910390f35b34801561048557600080fd5b506104a0600480360381019061049b919061306b565b61258b565b6040516104ad9190612e34565b60405180910390f35b3480156104c257600080fd5b506104dd60048036038101906104d89190612e87565b6128a8565b6040516104ea91906130b3565b60405180910390f35b60005481565b6060600080600190505b60005481116105a057600060048111156105205761051f612c43565b5b6001600083815260200190815260200160002060070160009054906101000a900460ff16600481111561055657610555612c43565b5b148015610579575060006001600083815260200190815260200160002060030154115b1561058d578180610589906130fd565b9250505b8080610598906130fd565b915050610503565b5060008167ffffffffffffffff8111156105bd576105bc613145565b5b6040519080825280602002602001820160405280156105f657816020015b6105e3612af4565b8152602001906001900390816105db5790505b509050600080600190505b600054811161081c576000600481111561061e5761061d612c43565b5b6001600083815260200190815260200160002060070160009054906101000a900460ff16600481111561065457610653612c43565b5b148015610677575060006001600083815260200190815260200160002060030154115b15610809576001600082815260200190815260200160002060405180610180016040529081600082015481526020016001820160009054906101000a900473ffffffffffffffffffffffffffffffffffffffff1673ffffffffffffffffffffffffffffffffffffffff1673ffffffffffffffffffffffffffffffffffffffff1681526020016002820160009054906101000a900473ffffffffffffffffffffffffffffffffffffffff1673ffffffffffffffffffffffffffffffffffffffff1673ffffffffffffffffffffffffffffffffffffffff168152602001600382015481526020016004820154815260200160058201548152602001600682015481526020016007820160009054906101000a900460ff16600481111561079e5761079d612c43565b5b60048111156107b0576107af612c43565b5b81526020016008820154815260200160098201548152602001600a8201548152602001600b820154815250508383815181106107ef576107ee613174565b5b60200260200101819052508180610805906130fd565b9250505b8080610814906130fd565b915050610601565b5081935050505090565b60008060008060008060008060008060008060008d11801561084a57506000548d11155b610889576040517f08c379a000000000000000000000000000000000000000000000000000000000815260040161088090613200565b60405180910390fd5b6000600160008f815260200190815260200160002060405180610180016040529081600082015481526020016001820160009054906101000a900473ffffffffffffffffffffffffffffffffffffffff1673ffffffffffffffffffffffffffffffffffffffff1673ffffffffffffffffffffffffffffffffffffffff1681526020016002820160009054906101000a900473ffffffffffffffffffffffffffffffffffffffff1673ffffffffffffffffffffffffffffffffffffffff1673ffffffffffffffffffffffffffffffffffffffff168152602001600382015481526020016004820154815260200160058201548152602001600682015481526020016007820160009054906101000a900460ff1660048111156109ad576109ac612c43565b5b60048111156109bf576109be612c43565b5b81526020016008820154815260200160098201548152602001600a8201548152602001600b820154815250509050806000015181602001518260400151836060015184608001518560a001518660c001518760e001518861010001518961012001518a61014001518b61016001519c509c509c509c509c509c509c509c509c509c509c509c505091939597999b5091939597999b565b60008054905090565b6000806000808611610aa5576040517f08c379a0000000000000000000000000000000000000000000000000000000008152600401610a9c9061326c565b60405180910390fd5b6064851115610ae9576040517f08c379a0000000000000000000000000000000000000000000000000000000008152600401610ae0906132d8565b60405180910390fd5b600084118015610afa5750603c8411155b610b39576040517f08c379a0000000000000000000000000000000000000000000000000000000008152600401610b3090613344565b60405180910390fd5b6104b0848688610b499190613364565b610b539190613364565b610b5d91906133d5565b90508086610b6b9190613406565b91508382610b7991906133d5565b925093509350939050565b806001600082815260200190815260200160002060020160009054906101000a900473ffffffffffffffffffffffffffffffffffffffff1673ffffffffffffffffffffffffffffffffffffffff163373ffffffffffffffffffffffffffffffffffffffff1614610c29576040517f08c379a0000000000000000000000000000000000000000000000000000000008152600401610c2090613486565b60405180910390fd5b600082118015610c3b57506000548211155b610c7a576040517f08c379a0000000000000000000000000000000000000000000000000000000008152600401610c7190613200565b60405180910390fd5b600060016000848152602001908152602001600020905060016004811115610ca557610ca4612c43565b5b8160070160009054906101000a900460ff166004811115610cc957610cc8612c43565b5b14610d09576040517f08c379a0000000000000000000000000000000000000000000000000000000008152600401610d00906134f2565b60405180910390fd5b600060018260080154610d1c9190613406565b9050600062278d0082610d2f9190613364565b8360060154610d3e9190613406565b905062278d0081610d4f9190613406565b4211610d90576040517f08c379a0000000000000000000000000000000000000000000000000000000008152600401610d879061355e565b60405180910390fd5b60038360070160006101000a81548160ff02191690836004811115610db857610db7612c43565b5b02179055506000600260008560010160009054906101000a900473ffffffffffffffffffffffffffffffffffffffff1673ffffffffffffffffffffffffffffffffffffffff1673ffffffffffffffffffffffffffffffffffffffff168152602001908152602001600020819055505050505050565b600080600083118015610e4257506000548311155b610e81576040517f08c379a0000000000000000000000000000000000000000000000000000000008152600401610e7890613200565b60405180910390fd5b60006001600085815260200190815260200160002060405180610180016040529081600082015481526020016001820160009054906101000a900473ffffffffffffffffffffffffffffffffffffffff1673ffffffffffffffffffffffffffffffffffffffff1673ffffffffffffffffffffffffffffffffffffffff1681526020016002820160009054906101000a900473ffffffffffffffffffffffffffffffffffffffff1673ffffffffffffffffffffffffffffffffffffffff1673ffffffffffffffffffffffffffffffffffffffff168152602001600382015481526020016004820154815260200160058201548152602001600682015481526020016007820160009054906101000a900460ff166004811115610fa557610fa4612c43565b5b6004811115610fb757610fb6612c43565b5b81526020016008820154815260200160098201548152602001600a8201548152602001600b82015481525050905060016004811115610ff957610ff8612c43565b5b8160e0015160048111156110105761100f612c43565b5b14611050576040517f08c379a0000000000000000000000000000000000000000000000000000000008152600401611047906134f2565b60405180910390fd5b8060a001518161010001511061109b576040517f08c379a0000000000000000000000000000000000000000000000000000000008152600401611092906135ca565b60405180910390fd5b600060018261010001516110af9190613406565b905062278d00816110c09190613364565b8260c001516110cf9190613406565b93508160a00151810361110f5760008261010001518361014001516110f49190613364565b90508083610160015161110791906135ea565b935050611118565b81610140015192505b5050915091565b60026020528060005260406000206000915090505481565b60008111801561114957506000548111155b611188576040517f08c379a000000000000000000000000000000000000000000000000000000000815260040161117f90613200565b60405180910390fd5b6000600160008381526020019081526020016000209050600060048111156111b3576111b2612c43565b5b8160070160009054906101000a900460ff1660048111156111d7576111d6612c43565b5b14611217576040517f08c379a000000000000000000000000000000000000000000000000000000000815260040161120e9061366a565b60405180910390fd5b6000670de0b6b3a764000082600301546112319190613364565b9050803414611275576040517f08c379a000000000000000000000000000000000000000000000000000000000815260040161126c906136fc565b60405180910390fd5b338260020160006101000a81548173ffffffffffffffffffffffffffffffffffffffff021916908373ffffffffffffffffffffffffffffffffffffffff16021790555060018260070160006101000a81548160ff021916908360048111156112e0576112df612c43565b5b02179055504282600601819055504282600901819055508160010160009054906101000a900473ffffffffffffffffffffffffffffffffffffffff1673ffffffffffffffffffffffffffffffffffffffff166108fc349081150290604051600060405180830381858888f19350505050158015611361573d6000803e3d6000fd5b507fbd7ef6c6281278f6c8ac4ae9ef2f205b52425813c288dd47c377cb6b59c5076e833384600301546040516113999392919061371c565b60405180910390a1505050565b60606000805467ffffffffffffffff8111156113c5576113c4613145565b5b6040519080825280602002602001820160405280156113fe57816020015b6113eb612af4565b8152602001906001900390816113e35790505b5090506000600190505b60005481116115ae576001600082815260200190815260200160002060405180610180016040529081600082015481526020016001820160009054906101000a900473ffffffffffffffffffffffffffffffffffffffff1673ffffffffffffffffffffffffffffffffffffffff1673ffffffffffffffffffffffffffffffffffffffff1681526020016002820160009054906101000a900473ffffffffffffffffffffffffffffffffffffffff1673ffffffffffffffffffffffffffffffffffffffff1673ffffffffffffffffffffffffffffffffffffffff168152602001600382015481526020016004820154815260200160058201548152602001600682015481526020016007820160009054906101000a900460ff16600481111561153357611532612c43565b5b600481111561154557611544612c43565b5b81526020016008820154815260200160098201548152602001600a8201548152602001600b820154815250508260018361157f91906135ea565b815181106115905761158f613174565b5b602002602001018190525080806115a6906130fd565b915050611408565b508091505090565b806001600082815260200190815260200160002060010160009054906101000a900473ffffffffffffffffffffffffffffffffffffffff1673ffffffffffffffffffffffffffffffffffffffff163373ffffffffffffffffffffffffffffffffffffffff161461165b576040517f08c379a00000000000000000000000000000000000000000000000000000000081526004016116529061379f565b60405180910390fd5b60008211801561166d57506000548211155b6116ac576040517f08c379a00000000000000000000000000000000000000000000000000000000081526004016116a390613200565b60405180910390fd5b600060048111156116c0576116bf612c43565b5b6001600084815260200190815260200160002060070160009054906101000a900460ff1660048111156116f6576116f5612c43565b5b14611736576040517f08c379a000000000000000000000000000000000000000000000000000000000815260040161172d9061380b565b60405180910390fd5b60046001600084815260200190815260200160002060070160006101000a81548160ff021916908360048111156117705761176f612c43565b5b02179055507fefdf5f8353d1790e8aa0fea474dc555d74760959441de5d6b9c31c408eb0b02882336040516117a692919061382b565b60405180910390a15050565b6000600260008373ffffffffffffffffffffffffffffffffffffffff1673ffffffffffffffffffffffffffffffffffffffff168152602001908152602001600020549050919050565b60016020528060005260406000206000915090508060000154908060010160009054906101000a900473ffffffffffffffffffffffffffffffffffffffff16908060020160009054906101000a900473ffffffffffffffffffffffffffffffffffffffff16908060030154908060040154908060050154908060060154908060070160009054906101000a900460ff169080600801549080600901549080600a01549080600b015490508c565b806001600082815260200190815260200160002060010160009054906101000a900473ffffffffffffffffffffffffffffffffffffffff1673ffffffffffffffffffffffffffffffffffffffff163373ffffffffffffffffffffffffffffffffffffffff161461194d576040517f08c379a00000000000000000000000000000000000000000000000000000000081526004016119449061379f565b60405180910390fd5b60008211801561195f57506000548211155b61199e576040517f08c379a000000000000000000000000000000000000000000000000000000000815260040161199590613200565b60405180910390fd5b6000600160008481526020019081526020016000209050600160048111156119c9576119c8612c43565b5b8160070160009054906101000a900460ff1660048111156119ed576119ec612c43565b5b14611a2d576040517f08c379a0000000000000000000000000000000000000000000000000000000008152600401611a24906134f2565b60405180910390fd5b8060050154816008015410611a77576040517f08c379a0000000000000000000000000000000000000000000000000000000008152600401611a6e906138a0565b60405180910390fd5b600060018260080154611a8a9190613406565b9050600082600a0154905082600501548203611acc576000836008015484600a0154611ab69190613364565b90508084600b0154611ac891906135ea565b9150505b6000670de0b6b3a764000082611ae29190613364565b905080341015611b27576040517f08c379a0000000000000000000000000000000000000000000000000000000008152600401611b1e9061390c565b60405180910390fd5b600062278d0084611b389190613364565b8560060154611b479190613406565b905080421115611cd9576005600260008760010160009054906101000a900473ffffffffffffffffffffffffffffffffffffffff1673ffffffffffffffffffffffffffffffffffffffff1673ffffffffffffffffffffffffffffffffffffffff1681526020019081526020016000205411611bc3576000611c34565b6005600260008760010160009054906101000a900473ffffffffffffffffffffffffffffffffffffffff1673ffffffffffffffffffffffffffffffffffffffff1673ffffffffffffffffffffffffffffffffffffffff16815260200190815260200160002054611c3391906135ea565b5b600260008760010160009054906101000a900473ffffffffffffffffffffffffffffffffffffffff1673ffffffffffffffffffffffffffffffffffffffff1673ffffffffffffffffffffffffffffffffffffffff168152602001908152602001600020819055507f84ce3031c57c5400c172eac11bcc766124b1b653e1657c0e03cda0427e3c70488742604051611ccc929190613016565b60405180910390a1611d54565b60028060008760010160009054906101000a900473ffffffffffffffffffffffffffffffffffffffff1673ffffffffffffffffffffffffffffffffffffffff1673ffffffffffffffffffffffffffffffffffffffff1681526020019081526020016000206000828254611d4c9190613406565b925050819055505b846008016000815480929190611d69906130fd565b91905055504285600901819055508460020160009054906101000a900473ffffffffffffffffffffffffffffffffffffffff1673ffffffffffffffffffffffffffffffffffffffff166108fc349081150290604051600060405180830381858888f19350505050158015611de1573d6000803e3d6000fd5b507f5502610c1ab6e7a325315fcc210e8e6f49864dcd87a454775895d22aa29fbcbb87853386604051611e17949392919061392c565b60405180910390a18460050154856008015403611e935760028560070160006101000a81548160ff02191690836004811115611e5657611e55612c43565b5b02179055507f9a7851747cd7ffb3fe0a32caf3da48b31f27cebe131267051640f8b72fc4718687604051611e8a9190612bac565b60405180910390a15b50505050505050565b60008082118015611eaf57506000548211155b8015611f1e5750600073ffffffffffffffffffffffffffffffffffffffff166001600084815260200190815260200160002060010160009054906101000a900473ffffffffffffffffffffffffffffffffffffffff1673ffffffffffffffffffffffffffffffffffffffff1614155b9050919050565b60008311611f68576040517f08c379a0000000000000000000000000000000000000000000000000000000008152600401611f5f9061326c565b60405180910390fd5b6064821115611fac576040517f08c379a0000000000000000000000000000000000000000000000000000000008152600401611fa3906132d8565b60405180910390fd5b600081118015611fbd5750603c8111155b611ffc576040517f08c379a0000000000000000000000000000000000000000000000000000000008152600401611ff390613344565b60405180910390fd5b60008081548092919061200e906130fd565b919050555060006104b08284866120259190613364565b61202f9190613364565b61203991906133d5565b9050600081856120499190613406565b90506000838261205991906133d5565b905060405180610180016040528060005481526020013373ffffffffffffffffffffffffffffffffffffffff168152602001600073ffffffffffffffffffffffffffffffffffffffff16815260200187815260200186815260200185815260200160008152602001600060048111156120d5576120d4612c43565b5b815260200160008152602001600081526020018281526020018381525060016000805481526020019081526020016000206000820151816000015560208201518160010160006101000a81548173ffffffffffffffffffffffffffffffffffffffff021916908373ffffffffffffffffffffffffffffffffffffffff16021790555060408201518160020160006101000a81548173ffffffffffffffffffffffffffffffffffffffff021916908373ffffffffffffffffffffffffffffffffffffffff160217905550606082015181600301556080820151816004015560a0820151816005015560c0820151816006015560e08201518160070160006101000a81548160ff021916908360048111156121f1576121f0612c43565b5b02179055506101008201518160080155610120820151816009015561014082015181600a015561016082015181600b01559050507ff6cc19e46a340ab5888d736bfc79aef72ae92d12d7b76319d72b0abc170868e66000543388888860405161225e959493929190613971565b60405180910390a1505050505050565b6060600080600190505b600054811161230c578373ffffffffffffffffffffffffffffffffffffffff166001600083815260200190815260200160002060010160009054906101000a900473ffffffffffffffffffffffffffffffffffffffff1673ffffffffffffffffffffffffffffffffffffffff16036122f95781806122f5906130fd565b9250505b8080612304906130fd565b915050612278565b5060008167ffffffffffffffff81111561232957612328613145565b5b60405190808252806020026020018201604052801561236257816020015b61234f612af4565b8152602001906001900390816123475790505b509050600080600190505b600054811161257f578573ffffffffffffffffffffffffffffffffffffffff166001600083815260200190815260200160002060010160009054906101000a900473ffffffffffffffffffffffffffffffffffffffff1673ffffffffffffffffffffffffffffffffffffffff160361256c576001600082815260200190815260200160002060405180610180016040529081600082015481526020016001820160009054906101000a900473ffffffffffffffffffffffffffffffffffffffff1673ffffffffffffffffffffffffffffffffffffffff1673ffffffffffffffffffffffffffffffffffffffff1681526020016002820160009054906101000a900473ffffffffffffffffffffffffffffffffffffffff1673ffffffffffffffffffffffffffffffffffffffff1673ffffffffffffffffffffffffffffffffffffffff168152602001600382015481526020016004820154815260200160058201548152602001600682015481526020016007820160009054906101000a900460ff16600481111561250157612500612c43565b5b600481111561251357612512612c43565b5b81526020016008820154815260200160098201548152602001600a8201548152602001600b8201548152505083838151811061255257612551613174565b5b60200260200101819052508180612568906130fd565b9250505b8080612577906130fd565b91505061236d565b50819350505050919050565b6060600080600190505b6000548111612629578373ffffffffffffffffffffffffffffffffffffffff166001600083815260200190815260200160002060020160009054906101000a900473ffffffffffffffffffffffffffffffffffffffff1673ffffffffffffffffffffffffffffffffffffffff1603612616578180612612906130fd565b9250505b8080612621906130fd565b915050612595565b5060008167ffffffffffffffff81111561264657612645613145565b5b60405190808252806020026020018201604052801561267f57816020015b61266c612af4565b8152602001906001900390816126645790505b509050600080600190505b600054811161289c578573ffffffffffffffffffffffffffffffffffffffff166001600083815260200190815260200160002060020160009054906101000a900473ffffffffffffffffffffffffffffffffffffffff1673ffffffffffffffffffffffffffffffffffffffff1603612889576001600082815260200190815260200160002060405180610180016040529081600082015481526020016001820160009054906101000a900473ffffffffffffffffffffffffffffffffffffffff1673ffffffffffffffffffffffffffffffffffffffff1673ffffffffffffffffffffffffffffffffffffffff1681526020016002820160009054906101000a900473ffffffffffffffffffffffffffffffffffffffff1673ffffffffffffffffffffffffffffffffffffffff1673ffffffffffffffffffffffffffffffffffffffff168152602001600382015481526020016004820154815260200160058201548152602001600682015481526020016007820160009054906101000a900460ff16600481111561281e5761281d612c43565b5b60048111156128305761282f612c43565b5b81526020016008820154815260200160098201548152602001600a8201548152602001600b8201548152505083838151811061286f5761286e613174565b5b60200260200101819052508180612885906130fd565b9250505b8080612894906130fd565b91505061268a565b50819350505050919050565b600080821180156128bb57506000548211155b6128fa576040517f08c379a00000000000000000000000000000000000000000000000000000000081526004016128f190613200565b60405180910390fd5b60006001600084815260200190815260200160002060405180610180016040529081600082015481526020016001820160009054906101000a900473ffffffffffffffffffffffffffffffffffffffff1673ffffffffffffffffffffffffffffffffffffffff1673ffffffffffffffffffffffffffffffffffffffff1681526020016002820160009054906101000a900473ffffffffffffffffffffffffffffffffffffffff1673ffffffffffffffffffffffffffffffffffffffff1673ffffffffffffffffffffffffffffffffffffffff168152602001600382015481526020016004820154815260200160058201548152602001600682015481526020016007820160009054906101000a900460ff166004811115612a1e57612a1d612c43565b5b6004811115612a3057612a2f612c43565b5b81526020016008820154815260200160098201548152602001600a8201548152602001600b82015481525050905060016004811115612a7257612a71612c43565b5b8160e001516004811115612a8957612a88612c43565b5b141580612a9f57508060a0015181610100015110155b15612aae576000915050612aef565b60006001826101000151612ac29190613406565b9050600062278d0082612ad59190613364565b8360c00151612ae49190613406565b905080421193505050505b919050565b60405180610180016040528060008152602001600073ffffffffffffffffffffffffffffffffffffffff168152602001600073ffffffffffffffffffffffffffffffffffffffff1681526020016000815260200160008152602001600081526020016000815260200160006004811115612b7157612b70612c43565b5b8152602001600081526020016000815260200160008152602001600081525090565b6000819050919050565b612ba681612b93565b82525050565b6000602082019050612bc16000830184612b9d565b92915050565b600081519050919050565b600082825260208201905092915050565b6000819050602082019050919050565b612bfc81612b93565b82525050565b600073ffffffffffffffffffffffffffffffffffffffff82169050919050565b6000612c2d82612c02565b9050919050565b612c3d81612c22565b82525050565b7f4e487b7100000000000000000000000000000000000000000000000000000000600052602160045260246000fd5b60058110612c8357612c82612c43565b5b50565b6000819050612c9482612c72565b919050565b6000612ca482612c86565b9050919050565b612cb481612c99565b82525050565b61018082016000820151612cd16000850182612bf3565b506020820151612ce46020850182612c34565b506040820151612cf76040850182612c34565b506060820151612d0a6060850182612bf3565b506080820151612d1d6080850182612bf3565b5060a0820151612d3060a0850182612bf3565b5060c0820151612d4360c0850182612bf3565b5060e0820151612d5660e0850182612cab565b50610100820151612d6b610100850182612bf3565b50610120820151612d80610120850182612bf3565b50610140820151612d95610140850182612bf3565b50610160820151612daa610160850182612bf3565b50505050565b6000612dbc8383612cba565b6101808301905092915050565b6000602082019050919050565b6000612de182612bc7565b612deb8185612bd2565b9350612df683612be3565b8060005b83811015612e27578151612e0e8882612db0565b9750612e1983612dc9565b925050600181019050612dfa565b5085935050505092915050565b60006020820190508181036000830152612e4e8184612dd6565b905092915050565b600080fd5b612e6481612b93565b8114612e6f57600080fd5b50565b600081359050612e8181612e5b565b92915050565b600060208284031215612e9d57612e9c612e56565b5b6000612eab84828501612e72565b91505092915050565b612ebd81612c22565b82525050565b612ecc81612c99565b82525050565b600061018082019050612ee8600083018f612b9d565b612ef5602083018e612eb4565b612f02604083018d612eb4565b612f0f606083018c612b9d565b612f1c608083018b612b9d565b612f2960a083018a612b9d565b612f3660c0830189612b9d565b612f4360e0830188612ec3565b612f51610100830187612b9d565b612f5f610120830186612b9d565b612f6d610140830185612b9d565b612f7b610160830184612b9d565b9d9c50505050505050505050505050565b600080600060608486031215612fa557612fa4612e56565b5b6000612fb386828701612e72565b9350506020612fc486828701612e72565b9250506040612fd586828701612e72565b9150509250925092565b6000606082019050612ff46000830186612b9d565b6130016020830185612b9d565b61300e6040830184612b9d565b949350505050565b600060408201905061302b6000830185612b9d565b6130386020830184612b9d565b9392505050565b61304881612c22565b811461305357600080fd5b50565b6000813590506130658161303f565b92915050565b60006020828403121561308157613080612e56565b5b600061308f84828501613056565b91505092915050565b60008115159050919050565b6130ad81613098565b82525050565b60006020820190506130c860008301846130a4565b92915050565b7f4e487b7100000000000000000000000000000000000000000000000000000000600052601160045260246000fd5b600061310882612b93565b91507fffffffffffffffffffffffffffffffffffffffffffffffffffffffffffffffff820361313a576131396130ce565b5b600182019050919050565b7f4e487b7100000000000000000000000000000000000000000000000000000000600052604160045260246000fd5b7f4e487b7100000000000000000000000000000000000000000000000000000000600052603260045260246000fd5b600082825260208201905092915050565b7f496e76616c6964206c6f616e2049440000000000000000000000000000000000600082015250565b60006131ea600f836131a3565b91506131f5826131b4565b602082019050919050565b60006020820190508181036000830152613219816131dd565b9050919050565b7f416d6f756e74206d7573742062652067726561746572207468616e2030000000600082015250565b6000613256601d836131a3565b915061326182613220565b602082019050919050565b6000602082019050818103600083015261328581613249565b9050919050565b7f496e746572657374207261746520746f6f206869676800000000000000000000600082015250565b60006132c26016836131a3565b91506132cd8261328c565b602082019050919050565b600060208201905081810360008301526132f1816132b5565b9050919050565b7f496e76616c6964206475726174696f6e00000000000000000000000000000000600082015250565b600061332e6010836131a3565b9150613339826132f8565b602082019050919050565b6000602082019050818103600083015261335d81613321565b9050919050565b600061336f82612b93565b915061337a83612b93565b925082820261338881612b93565b9150828204841483151761339f5761339e6130ce565b5b5092915050565b7f4e487b7100000000000000000000000000000000000000000000000000000000600052601260045260246000fd5b60006133e082612b93565b91506133eb83612b93565b9250826133fb576133fa6133a6565b5b828204905092915050565b600061341182612b93565b915061341c83612b93565b9250828201905080821115613434576134336130ce565b5b92915050565b7f4e6f74206c656e64657200000000000000000000000000000000000000000000600082015250565b6000613470600a836131a3565b915061347b8261343a565b602082019050919050565b6000602082019050818103600083015261349f81613463565b9050919050565b7f4c6f616e206e6f74206163746976650000000000000000000000000000000000600082015250565b60006134dc600f836131a3565b91506134e7826134a6565b602082019050919050565b6000602082019050818103600083015261350b816134cf565b9050919050565b7f5061796d656e74206e6f74206f76657264756520627920333020646179730000600082015250565b6000613548601e836131a3565b915061355382613512565b602082019050919050565b600060208201905081810360008301526135778161353b565b9050919050565b7f416c6c20696e7374616c6c6d656e747320706169640000000000000000000000600082015250565b60006135b46015836131a3565b91506135bf8261357e565b602082019050919050565b600060208201905081810360008301526135e3816135a7565b9050919050565b60006135f582612b93565b915061360083612b93565b9250828203905081811115613618576136176130ce565b5b92915050565b7f4c6f616e206e6f7420617661696c61626c6520666f722066756e64696e670000600082015250565b6000613654601e836131a3565b915061365f8261361e565b602082019050919050565b6000602082019050818103600083015261368381613647565b9050919050565b7f4d7573742073656e64206578616374206c6f616e20616d6f756e7420696e204560008201527f5448000000000000000000000000000000000000000000000000000000000000602082015250565b60006136e66022836131a3565b91506136f18261368a565b604082019050919050565b60006020820190508181036000830152613715816136d9565b9050919050565b60006060820190506137316000830186612b9d565b61373e6020830185612eb4565b61374b6040830184612b9d565b949350505050565b7f4e6f7420626f72726f7765720000000000000000000000000000000000000000600082015250565b6000613789600c836131a3565b915061379482613753565b602082019050919050565b600060208201905081810360008301526137b88161377c565b9050919050565b7f43616e6e6f742072656d6f76652066756e6465642f726570616964206c6f616e600082015250565b60006137f56020836131a3565b9150613800826137bf565b602082019050919050565b60006020820190508181036000830152613824816137e8565b9050919050565b60006040820190506138406000830185612b9d565b61384d6020830184612eb4565b9392505050565b7f416c6c20696e7374616c6c6d656e747320616c72656164792070616964000000600082015250565b600061388a601d836131a3565b915061389582613854565b602082019050919050565b600060208201905081810360008301526138b98161387d565b9050919050565b7f496e73756666696369656e74207061796d656e7420616d6f756e740000000000600082015250565b60006138f6601b836131a3565b9150613901826138c0565b602082019050919050565b60006020820190508181036000830152613925816138e9565b9050919050565b60006080820190506139416000830187612b9d565b61394e6020830186612b9d565b61395b6040830185612eb4565b6139686060830184612b9d565b95945050505050565b600060a0820190506139866000830188612b9d565b6139936020830187612eb4565b6139a06040830186612b9d565b6139ad6060830185612b9d565b6139ba6080830184612b9d565b969550505050505056fea2646970667358221220403159620d61d51bfe08a4f656ec9d33dc432b8a843912b4edaa4e603b4938d364736f6c634300081c0033",
  "linkReferences": {},
  "deployedLinkReferences": {}
}